2022-03-09 09:30:00.123_456 [SystemA] (INFO) : 8=FIX.4.2|9=145|35=D|34=4|49=ABC_DEFG01|52=20090323-15:40:29|56=CCG|115=XYZ|11=NF 0542/03232009|54=1|38=100|55=CVS|40=1|59=0|47=A|60=20090323-15:40:29|21=1|207=N|10=139|
2022-03-09 09:31:00.123_456 [SystemA] (INFO) : 8=FIX.4.2|9=226|35=8|128=XYZ|34=4|49=CCG|56=ABC_DEFG01|52=20090323-15:40:35|55=CVS|37=NF 0542/03232009|11=NF 0542/03232009|17=0|20=0|39=0|150=0|54=1|38=100|40=1|59=0|31=0|32=0|14=0|6=0|151=100|60=20090323-15:40:30|58=New order|30=N|207=N|47=A|10=149|
2022-03-09 09:32:00.123_456 [SystemB] (INFO) : 8=FIX.4.2|9=147|35=D|34=3|49=LEH_LZJ02|52=20100303-20:31:56|56=CCG|115=LZJ|11=NF 0050/03032010|54=1|38=100|55=MMM|40=2|44=50|59=1|1=ABC123ZYX|21=1|18=F|207=N|47=A|10=054|
2022-03-09 09:33:00.123_456 [SystemB] (INFO) : 8=FIX.4.2|9=378|35=8|128=XYZ|34=5|49=CCG|56=ABC_DEFG01|52=20090323-15:40:35|55=CVS|37=NF 0542/03232009|11=NF 0542/03232009|17=NF 0542/03232009001001001|20=0|39=2|150=2|54=1|38=100|40=1|59=0|31=25.4800|32=100|14=0|6=0|151=0|60=20090323-15:40:30|58=Fill|30=N|76=0034|207=N|47=A|9430=NX|9483=000008|9578=1|382=1|375=TOD|337=0000|437=100|438=1243|9579=0000100001|9426=2/2|9433=0034|29=1|63=0|9440=001001001|10=080|
2022-03-09 09:34:00.123_456 [SystemB] (INFO) : 8=FIX.4.2|9=389|35=8|128=XYZ|34=27|49=CCG|56=ABC_DEFG01|52=20090325-14:28:10|55=CVS|37=NF 0568/03252009|11=NF 0568/03252009|17=NF 0568/03252009001001001|20=0|39=1|150=1|54=2|38=500|40=1|59=0|31=25.4700|32=100|14=0|6=0|151=400|60=20090325-14:28:12|58=Partial Fill|30=N|76=0034|207=N|47=A|9430=NX|9483=000006|9578=1|382=1|375=TOD|337=0000|437=100|438=1134|9579=0000100001|9426=1|9433=0034|29=1|63=0|9440=001001001|10=251|
2022-03-09 09:35:00.123_456 [SystemC] (INFO) : 8=FIX.4.2|9=155|35=D|34=17|49=ABC_DEFG01|52=20090325-14:26:15|56=CCG|115=XYZ|11=NF 0565/03252009|54=1|38=100|55=CVS|40=2|44=24.47|59=0|47=A|60=20090325-14:26:15|21=1|207=N|10=109|
2022-03-09 09:36:00.123_456 [SystemC] (INFO) : 8=FIX.4.2|9=170|35=F|34=39|49=ABC_DEFG01|52=20090325-14:36:17|56=CCG|115=XYZ|41=NF 0565/03252009|37=NF 0565/03252009|11=NF 0569/03252009|54=1|38=100|55=CVS|60=20090325-14:36:17|207=N|10=228|